{
  "contractName": "Polling",
  "abi": [
    {
      "anonymous": false,
      "inputs": [
        {
          "indexed": true,
          "name": "creator",
          "type": "address"
        },
        {
          "indexed": false,
          "name": "orgId",
          "type": "uint256"
        }
      ],
      "name": "CreateOrganisation",
      "type": "event"
    },
    {
      "anonymous": false,
      "inputs": [
        {
          "indexed": true,
          "name": "organisationId",
          "type": "uint256"
        },
        {
          "indexed": false,
          "name": "constituents",
          "type": "address[]"
        }
      ],
      "name": "AddConstituent",
      "type": "event"
    },
    {
      "anonymous": false,
      "inputs": [
        {
          "indexed": true,
          "name": "_organisationId",
          "type": "uint256"
        },
        {
          "indexed": false,
          "name": "_constituent",
          "type": "address"
        }
      ],
      "name": "RemoveConstituent",
      "type": "event"
    },
    {
      "anonymous": false,
      "inputs": [
        {
          "indexed": true,
          "name": "organisationId",
          "type": "uint256"
        },
        {
          "indexed": false,
          "name": "initiativeId",
          "type": "uint256"
        },
        {
          "indexed": false,
          "name": "initiativeTitle",
          "type": "string"
        },
        {
          "indexed": false,
          "name": "expiryTime",
          "type": "uint256"
        },
        {
          "indexed": false,
          "name": "number_of_votes_allowed",
          "type": "uint256"
        },
        {
          "indexed": false,
          "name": "_ballotOptions",
          "type": "uint256[]"
        }
      ],
      "name": "AddInitiative",
      "type": "event"
    },
    {
      "constant": false,
      "inputs": [],
      "name": "createOrgranisation",
      "outputs": [],
      "payable": false,
      "stateMutability": "nonpayable",
      "type": "function"
    },
    {
      "constant": false,
      "inputs": [
        {
          "name": "_organisationId",
          "type": "uint256"
        },
        {
          "name": "_constituents",
          "type": "address[]"
        }
      ],
      "name": "addConstituent",
      "outputs": [],
      "payable": false,
      "stateMutability": "nonpayable",
      "type": "function"
    },
    {
      "constant": false,
      "inputs": [
        {
          "name": "_organisationId",
          "type": "uint256"
        },
        {
          "name": "_constituent",
          "type": "address"
        }
      ],
      "name": "removeConstituent",
      "outputs": [],
      "payable": false,
      "stateMutability": "nonpayable",
      "type": "function"
    },
    {
      "constant": false,
      "inputs": [
        {
          "name": "_organisationId",
          "type": "uint256"
        },
        {
          "name": "_initiativeTitle",
          "type": "string"
        },
        {
          "name": "_ballotOptions",
          "type": "uint256[]"
        },
        {
          "name": "_expiryTime",
          "type": "uint256"
        },
        {
          "name": "_number_of_votes_allowed",
          "type": "uint256"
        },
        {
          "name": "_allowAnyOne",
          "type": "bool"
        }
      ],
      "name": "addInitiative",
      "outputs": [],
      "payable": false,
      "stateMutability": "nonpayable",
      "type": "function"
    },
    {
      "constant": false,
      "inputs": [
        {
          "name": "_orgId",
          "type": "uint256"
        },
        {
          "name": "_initiativeId",
          "type": "uint256"
        },
        {
          "name": "_choice",
          "type": "uint256"
        }
      ],
      "name": "vote",
      "outputs": [],
      "payable": false,
      "stateMutability": "nonpayable",
      "type": "function"
    },
    {
      "constant": false,
      "inputs": [
        {
          "name": "_orgId",
          "type": "uint256"
        },
        {
          "name": "_initiativeId",
          "type": "uint256"
        }
      ],
      "name": "getInitiativeResult",
      "outputs": [
        {
          "name": "",
          "type": "uint256[]"
        },
        {
          "name": "",
          "type": "uint256[]"
        }
      ],
      "payable": false,
      "stateMutability": "nonpayable",
      "type": "function"
    }
  ],
  "bytecode": "0x608060405234801561001057600080fd5b50611680806100206000396000f3fe608060405260043610610078576000357c0100000000000000000000000000000000000000000000000000000000900463ffffffff168063016e43a51461007d5780632958bf301461014c57806347b64953146101a757806379b33912146101be5780638a6655d614610344578063cc62b48a14610393575b600080fd5b34801561008957600080fd5b5061014a600480360360408110156100a057600080fd5b8101908080359060200190929190803590602001906401000000008111156100c757600080fd5b8201836020820111156100d957600080fd5b803590602001918460208302840111640100000000831117156100fb57600080fd5b919080806020026020016040519081016040528093929190818152602001838360200280828437600081840152601f19601f820116905080830192505050505050509192919290505050610475565b005b34801561015857600080fd5b506101a56004803603604081101561016f57600080fd5b8101908080359060200190929190803573ffffffffffffffffffffffffffffffffffffffff169060200190929190505050610610565b005b3480156101b357600080fd5b506101bc610834565b005b3480156101ca57600080fd5b50610342600480360360c08110156101e157600080fd5b81019080803590602001909291908035906020019064010000000081111561020857600080fd5b82018360208201111561021a57600080fd5b8035906020019184600183028401116401000000008311171561023c57600080fd5b91908080601f016020809104026020016040519081016040528093929190818152602001838380828437600081840152601f19601f8201169050808301925050505050505091929192908035906020019064010000000081111561029f57600080fd5b8201836020820111156102b157600080fd5b803590602001918460208302840111640100000000831117156102d357600080fd5b919080806020026020016040519081016040528093929190818152602001838360200280828437600081840152601f19601f8201169050808301925050505050505091929192908035906020019092919080359060200190929190803515159060200190929190505050610977565b005b34801561035057600080fd5b506103916004803603606081101561036757600080fd5b81019080803590602001909291908035906020019092919080359060200190929190505050610d23565b005b34801561039f57600080fd5b506103d6600480360360408110156103b657600080fd5b8101908080359060200190929190803590602001909291905050506112b7565b604051808060200180602001838103835285818151815260200191508051906020019060200280838360005b8381101561041d578082015181840152602081019050610402565b50505050905001838103825284818151815260200191508051906020019060200280838360005b8381101561045f578082015181840152602081019050610444565b5050505090500194505050505060405180910390f35b8160048181548110151561048557fe5b906000526020600020906003020160000160009054906101000a900473ffffffffffffffffffffffffffffffffffffffff1673ffffffffffffffffffffffffffffffffffffffff163373ffffffffffffffffffffffffffffffffffffffff161415156104f057600080fd5b60008090505b8251811015610591576000838281518110151561050f57fe5b90602001906020020151905060016000808373ffffffffffffffffffffffffffffffffffffffff1673ffffffffffffffffffffffffffffffffffffffff168152602001908152602001600020600087815260200190815260200160002060006101000a81548160ff0219169083151502179055505080806001019150506104f6565b50827f165e41d281ccdb8270bce624fea5a5ad8c091498718d0c1af9dfe85cfa80eabe836040518080602001828103825283818151815260200191508051906020019060200280838360005b838110156105f85780820151818401526020810190506105dd565b505050509050019250505060405180910390a2505050565b8160048181548110151561062057fe5b906000526020600020906003020160000160009054906101000a900473ffffffffffffffffffffffffffffffffffffffff1673ffffffffffffffffffffffffffffffffffffffff163373ffffffffffffffffffffffffffffffffffffffff1614151561068b57600080fd5b600115156000808473ffffffffffffffffffffffffffffffffffffffff1673ffffffffffffffffffffffffffffffffffffffff168152602001908152602001600020600085815260200190815260200160002060009054906101000a900460ff161515141515610763576040517f08c379a000000000000000000000000000000000000000000000000000000000815260040180806020018281038252601b8152602001807f636f6e7374697475656e7420646f657374206e6f74206578697374000000000081525060200191505060405180910390fd5b60008060008473ffffffffffffffffffffffffffffffffffffffff1673ffffffffffffffffffffffffffffffffffffffff168152602001908152602001600020600085815260200190815260200160002060006101000a81548160ff021916908315150217905550827f7a32c0b0e6b8f6d09ad1f6bc6c7af158dc4af9a85754b9fbd4d80816a3b9ea4f83604051808273ffffffffffffffffffffffffffffffffffffffff1673ffffffffffffffffffffffffffffffffffffffff16815260200191505060405180910390a2505050565b60003390506000600480549050905061084b6114e6565b6060604051908101604052808473ffffffffffffffffffffffffffffffffffffffff1681526020018381526020016001151581525090506004819080600181540180825580915050906001820390600052602060002090600302016000909192909190915060008201518160000160006101000a81548173ffffffffffffffffffffffffffffffffffffffff021916908373ffffffffffffffffffffffffffffffffffffffff1602179055506020820151816001015560408201518160020160006101000a81548160ff0219169083151502179055505050508273ffffffffffffffffffffffffffffffffffffffff167f22b2607c7bbfc9a7590d4a6079a5e58ffd867d131a97f7e4427ec60f0491462b836040518082815260200191505060405180910390a2505050565b8560048181548110151561098757fe5b906000526020600020906003020160000160009054906101000a900473ffffffffffffffffffffffffffffffffffffffff1673ffffffffffffffffffffffffffffffffffffffff163373ffffffffffffffffffffffffffffffffffffffff161415156109f257600080fd5b60008551111515610a6b576040517f08c379a00000000000000000000000000000000000000000000000000000000081526004018080602001828103825260198152602001807f73686f756c6420686176652062616c6c6f744f7074696f6e730000000000000081525060200191505060405180910390fd5b4284111515610ae2576040517f08c379a000000000000000000000000000000000000000000000000000000000815260040180806020018281038252601b8152602001807f73686f756c642065787069726520696e2074686520667574757265000000000081525060200191505060405180910390fd5b600060036000898152602001908152602001600020805490509050610b05611520565b60e0604051908101604052808381526020018981526020018781526020018681526020018881526020018515158152602001600115158152509050600360008a81526020019081526020016000208190806001815401808255809150509060018203906000526020600020906006020160009091929091909150600082015181600001556020820151816001019080519060200190610ba5929190611562565b5060408201518160020155606082015181600301556080820151816004019080519060200190610bd69291906115e2565b5060a08201518160050160006101000a81548160ff02191690831515021790555060c08201518160050160016101000a81548160ff021916908315150217905550505050887fc5f5c129ab8bbb9432f5ba85a82c1389677d06ef1826d2d108bbfaa1b8994fe2838a89898c604051808681526020018060200185815260200184815260200180602001838103835287818151815260200191508051906020019080838360005b83811015610c97578082015181840152602081019050610c7c565b50505050905090810190601f168015610cc45780820380516001836020036101000a031916815260200191505b50838103825284818151815260200191508051906020019060200280838360005b83811015610d00578082015181840152602081019050610ce5565b5050505090500197505050505050505060405180910390a2505050505050505050565b60006003600085815260200190815260200160002083815481101515610d4557fe5b9060005260206000209060060201905060008160040190506000339050600015158360050160009054906101000a900460ff1615151415610f8057610ee58360e0604051908101604052908160008201548152602001600182018054600181600116156101000203166002900480601f016020809104026020016040519081016040528092919081815260200182805460018160011615610100020316600290048015610e335780601f10610e0857610100808354040283529160200191610e33565b820191906000526020600020905b815481529060010190602001808311610e1657829003601f168201915b50505050508152602001600282015481526020016003820154815260200160048201805480602002602001604051908101604052809291908181526020018280548015610e9f57602002820191906000526020600020905b815481526020019060010190808311610e8b575b505050505081526020016005820160009054906101000a900460ff161515151581526020016005820160019054906101000a900460ff1615151515815250508288611418565b1515610f7f576040517f08c379a00000000000000000000000000000000000000000000000000000000081526004018080602001828103825260298152602001807f6f6e6c79206f726720636f6e7374697475656e74732061726520616c6c6f776581526020017f6420746f20766f7465000000000000000000000000000000000000000000000081525060400191505060405180910390fd5b5b600115158360050160019054906101000a900460ff161515148015610fa85750848360000154145b151561101c576040517f08c379a00000000000000000000000000000000000000000000000000000000081526004018080602001828103825260188152602001807f696e7469617469766520646f6573206e6f74206578697374000000000000000081525060200191505060405180910390fd5b428360020154111515611097576040517f08c379a00000000000000000000000000000000000000000000000000000000081526004018080602001828103825260198152602001807f766f74696e6720706572696f642068617320657870697265640000000000000081525060200191505060405180910390fd5b6000836003015490506000811115611145578060016000898152602001908152602001600020600088815260200190815260200160002054101515611144576040517f08c379a000000000000000000000000000000000000000000000000000000000815260040180806020018281038252601b8152602001807f63616e6e6f742065786365656420616c6c6f77656420766f746573000000000081525060200191505060405180910390fd5b5b61119e8380548060200260200160405190810160405280929190818152602001828054801561119357602002820191906000526020600020905b81548152602001906001019080831161117f575b505050505086611494565b1515611238576040517f08c379a000000000000000000000000000000000000000000000000000000000815260040180806020018281038252602c8152602001807f63686f696365206973206e6f742070617274206f6620616c6c6f77656420626181526020017f6c6c6f74206f7074696f6e73000000000000000000000000000000000000000081525060400191505060405180910390fd5b6001600260008981526020019081526020016000206000888152602001908152602001600020600087815260200190815260200160002060008282540192505081905550600180600089815260200190815260200160002060008881526020019081526020016000206000828254019250508190555050505050505050565b606080600060036000868152602001908152602001600020848154811015156112dc57fe5b906000526020600020906006020190506000816004019050606081805490506040519080825280602002602001820160405280156113295781602001602082028038833980820191505090505b50905060008090505b82805490508110156113b5576002600089815260200190815260200160002060008881526020019081526020016000206000848381548110151561137257fe5b9060005260206000200154815260200190815260200160002054828281518110151561139a57fe5b90602001906020020181815250508080600101915050611332565b5081818180548060200260200160405190810160405280929190818152602001828054801561140357602002820191906000526020600020905b8154815260200190600101908083116113ef575b50505050509150945094505050509250929050565b60008360a001511561142d576001905061148d565b6000808473ffffffffffffffffffffffffffffffffffffffff1673ffffffffffffffffffffffffffffffffffffffff168152602001908152602001600020600083815260200190815260200160002060009054906101000a900460ff1690505b9392505050565b6000806000905060008090505b84518110156114db5784818151811015156114b857fe5b906020019060200201518414156114ce57600191505b80806001019150506114a1565b508091505092915050565b606060405190810160405280600073ffffffffffffffffffffffffffffffffffffffff168152602001600081526020016000151581525090565b60e06040519081016040528060008152602001606081526020016000815260200160008152602001606081526020016000151581526020016000151581525090565b828054600181600116156101000203166002900490600052602060002090601f016020900481019282601f106115a357805160ff19168380011785556115d1565b828001600101855582156115d1579182015b828111156115d05782518255916020019190600101906115b5565b5b5090506115de919061162f565b5090565b82805482825590600052602060002090810192821561161e579160200282015b8281111561161d578251825591602001919060010190611602565b5b50905061162b919061162f565b5090565b61165191905b8082111561164d576000816000905550600101611635565b5090565b9056fea165627a7a723058203ad1c89e030c5ac4a8a1525801c8d42bc8d3c014cad858749805eb5c04dec98a0029",
  "source": "pragma solidity >=0.4.21 <0.6.0;\n\ncontract Polling {\n\n    struct Initiative {\n        uint initiativeId;\n        string initiativeTitle; // very short description of what is being voted on\n        uint expiryTime;\n        uint number_of_votes_allowed;\n        uint[] ballotOptions; // integer representation of available voting options\n        bool allowAnyone;\n        bool exists;\n    }\n\n    struct Organisation {\n        address creator;\n        uint orgId;\n        bool exists;\n    }\n\n    modifier allowOnlyOrgOwner(uint orgId) {\n        require(msg.sender == organisations[orgId].creator);\n        _;\n    }\n\n    // mapping of constituent address to orgId to exists\n    mapping(address => mapping(uint => bool)) constituents;\n    // mapping of orgId to intiativeId to totalVotes\n    mapping(uint => mapping(uint => uint)) totalVotes;\n    // mapping of orgId to intiativeId to ballotOption and vote\n    mapping(uint => mapping(uint => mapping(uint => uint))) votes;\n     // mapping of orgId to org intiatives\n    mapping(uint => Initiative[]) intiatives;\n\n    // array of created organisations\n    Organisation[] organisations;\n\n    function createOrgranisation() public {\n        address creator = msg.sender;\n        uint orgId = organisations.length;\n        \n        Organisation memory newOrganisation = Organisation(\n            creator,\n            orgId,\n            true\n        );\n        \n        organisations.push(newOrganisation);\n        emit CreateOrganisation(creator, orgId);\n    }\n    \n    function addConstituent(uint _organisationId, address[] memory _constituents) allowOnlyOrgOwner(_organisationId) public {\n        for (uint i = 0; i < _constituents.length; i++) {\n            address constituent = _constituents[i];\n            constituents[constituent][_organisationId] = true;\n        }\n\n        emit AddConstituent(\n            _organisationId,\n            _constituents\n        );\n    }\n\n    function removeConstituent(uint _organisationId, address _constituent) allowOnlyOrgOwner(_organisationId) public {\n        require(constituents[_constituent][_organisationId] == true, 'constituent doest not exist');\n        \n        // remove constituent\n        constituents[_constituent][_organisationId] = false;\n\n        emit RemoveConstituent(\n            _organisationId,\n            _constituent\n        );\n    }\n\n    function addInitiative( \n        uint _organisationId,  \n        string memory _initiativeTitle,  \n        uint[] memory _ballotOptions,\n        uint _expiryTime, \n        uint _number_of_votes_allowed,\n        bool _allowAnyOne\n    ) public allowOnlyOrgOwner(_organisationId) {\n\n        require(_ballotOptions.length > 0, 'should have ballotOptions');\n        require(_expiryTime > now, 'should expire in the future');\n\n        uint initiativeId = intiatives[_organisationId].length;\n\n        Initiative memory newInitiative = Initiative(\n            initiativeId,\n            _initiativeTitle,\n            _expiryTime,\n            _number_of_votes_allowed,\n            _ballotOptions,\n            _allowAnyOne,\n            true\n        );\n\n        // store\n        intiatives[_organisationId].push(newInitiative);\n        \n        emit AddInitiative(\n            _organisationId,\n            initiativeId,\n            _initiativeTitle,\n            _expiryTime,\n            _number_of_votes_allowed,\n            _ballotOptions\n        );\n    }\n\n    function vote(uint _orgId, uint _initiativeId, uint _choice) public {\n        // check if initiave exists\n        Initiative storage initiative = intiatives[_orgId][_initiativeId];\n        uint[] storage ballotOptions = initiative.ballotOptions;\n        address constituent = msg.sender;\n\n        if(initiative.allowAnyone == false) {\n            // check if the initiate allows anyone or just constituents\n            require(isOrgConstituent(initiative, constituent, _orgId), 'only org constituents are allowed to vote');\n        }\n\n        require(initiative.exists == true && initiative.initiativeId == _initiativeId, 'intiative does not exist' );\n        // check if time has not expired\n        require(initiative.expiryTime > now, 'voting period has expired');\n        // check if it doesn't exceed the number of votes allowed\n        uint number_of_votes_allowed = initiative.number_of_votes_allowed;\n        if(number_of_votes_allowed > 0 ){\n            require(totalVotes[_orgId][_initiativeId] < number_of_votes_allowed, 'cannot exceed allowed votes');\n        }\n        // check if choice is part of ballotOptions\n        require(partOfBallotOptions(ballotOptions, _choice), 'choice is not part of allowed ballot options');\n\n        // increase choice by 1\n        votes[_orgId][_initiativeId][_choice] += 1;\n        // increase total vote\n        totalVotes[_orgId][_initiativeId] += 1;\n    }\n\n    function getInitiativeResult(uint _orgId, uint _initiativeId) public returns(uint[] memory, uint[] memory) {\n        Initiative storage initative = intiatives[_orgId][_initiativeId];   \n        uint[] storage ballotOptions = initative.ballotOptions;\n\n        uint[] memory ballotResult = new uint[](ballotOptions.length);\n\n        for(uint i = 0; i < ballotOptions.length; i++ ){\n            // retreive the voting result\n            ballotResult[i] = votes[_orgId][_initiativeId][ballotOptions[i]];\n        }\n        \n        return (ballotOptions, ballotResult);\n    }\n\n    function isOrgConstituent(Initiative memory initiative, address _constituent, uint _organisationId) internal view returns(bool){\n        if(initiative.allowAnyone) {\n            return true;\n        }\n\n        return constituents[_constituent][_organisationId];\n    }\n\n    function partOfBallotOptions(uint[] memory ballotOptions, uint choice) internal pure returns(bool) {\n        bool exists = false;\n        for(uint i = 0; i < ballotOptions.length; i++) {\n            if(choice == ballotOptions[i]) {\n                exists = true;\n            }\n        }\n\n        return exists;\n    }\n\n    event CreateOrganisation(\n        address indexed creator,\n        uint orgId\n    );\n\n    event AddConstituent(\n        uint indexed organisationId,\n        address[] constituents\n    );\n\n    event RemoveConstituent(\n        uint indexed _organisationId,\n        address _constituent\n    );\n\n    event AddInitiative(\n        uint indexed organisationId,\n        uint initiativeId,\n        string initiativeTitle,\n        uint expiryTime,\n        uint number_of_votes_allowed,\n        uint[] _ballotOptions\n    );\n\n\n}",
  "sourcePath": "/Users/Samparsky/Sites/nodejs/polling-app/contract/contracts/Polling.sol",
  "compiler": {
    "name": "solc",
    "version": "0.5.0+commit.1d4f565a.Emscripten.clang"
  },
  "schemaVersion": "3.0.2",
  "updatedAt": "2019-04-20T10:12:47.449Z",
  "devdoc": {
    "methods": {}
  },
  "userdoc": {
    "methods": {}
  }
}